:100000000C942A000C9417070C9447000C9447009A
:100010000C9447000C9447000C9447000C94470044
:100020000C9447000C9447000C9447000C94470034
:100030000C9447000C9447000C9447000C94470024
:100040000C9447000C9447000C9447000C94470014
:100050000C94470011241FBECFE5D8E0DEBFCDBF12
:1000600010E0A0E6B0E0EEE3FDE102C005900D92E5
:10007000AC39B107D9F710E0ACE9B0E001C01D928E
:10008000A33AB107E1F70E94AE0A0C949D0E0C94BE
:100090000000EF92FF920F931F937B018C0120E0F1
:1000A00030E040E05FE40E94490388238CF0C801FF
:1000B000B70120E030E040E05FE40E94C1010E940F
:1000C000A9039B01AC01205030404040504806C07D
:1000D000C801B7010E94A9039B01AC01B901CA0183
:1000E0001F910F91FF90EF900895A0E0B0E0EBE733
:1000F000F0E00C94D40BDC012B01FA019C919230BE
:1001000008F439C1EB018881823008F433C194309E
:1001100069F4843009F02FC111969C91119789815F
:10012000981709F428C1A3E9B0E025C1843009F487
:1001300021C18230A9F4923009F01DC19A01AD01AC
:1001400088E0EA010990AE01E90109929E0181501F
:10015000C1F7E201898111969C918923818308C1AD
:10016000923009F407C112962D903C901397EB0141
:100170008A819B811496AD90BD90CD90DC901797AD
:10018000EC80FD800E811F819101281B390BB90184
:1001900037FF04C066277727621B730B6032710537
:1001A0000CF061C0121613066CF537014801062EDB
:1001B00004C096948794779467940A94D2F721E0C8
:1001C00030E040E050E004C0220F331F441F551FB1
:1001D0006A95D2F721503040404050402E213F21B7
:1001E00040235123211531054105510521F021E01E
:1001F00030E040E050E079018A01E628F72808293C
:1002000019293CC0232BD1F1260E371E350146019A
:10021000062E04C096948794779467940A94D2F734
:1002200021E030E040E050E004C0220F331F441FC3
:10023000551F6A95D2F721503040404050402A2146
:100240003B214C215D21211531054105510521F04E
:1002500021E030E040E050E059016A01A628B728CB
:10026000C828D9280BC0821593052CF01C01AA249C
:10027000BB24650103C0EE24FF24870111969C91E5
:10028000D20111968C91981709F445C0992339F041
:10029000A80197012A193B094C095D0906C0A6016E
:1002A00095012E193F09400B510B57FD08C01182D3
:1002B0003382228224833583468357831DC081E0A5
:1002C00081833382228288279927DC01821B930B4A
:1002D000A40BB50B84839583A683B7830DC0220F2F
:1002E000331F441F551F24833583468357838281E0
:1002F000938101979383828324813581468157813D
:10030000DA01C9010197A109B1098F5F9F4FAF4F72
:10031000BF4328F30BC0918333822282EA0CFB1C7B
:100320000C1D1D1DE482F5820683178383E0808304
:10033000248135814681578157FF1AC0C901AA27F8
:1003400097FDA095BA2F81709070A070B0705695EF
:10035000479537952795822B932BA42BB52B848318
:100360009583A683B7838281938101969383828349
:10037000DF0101C0D201CD01CDB7DEB7E2E10C94BF
:10038000F00BA0E2B0E0E7ECF1E00C94E00B698345
:100390007A838B839C832D833E834F835887E9E048
:1003A000EE2EF12CEC0EFD1ECE010196B7010E943F
:1003B000D2048E010F5E1F4FCE010596B8010E9438
:1003C000D2048A8991E089278A8BC701B801AE01DE
:1003D000475E5F4F0E9475000E94FD03A096E6E015
:1003E0000C94FC0BA0E2B0E0E8EFF1E00C94E00B21
:1003F00069837A838B839C832D833E834F835887C5
:10040000F9E0EF2EF12CEC0EFD1ECE010196B701A6
:100410000E94D2048E010F5E1F4FCE010596B801D7
:100420000E94D204C701B801AE01475E5F4F0E942F
:1004300075000E94FD03A096E6E00C94FC0BA0E280
:10044000B0E0E5E2F2E00C94D40B69837A838B830D
:100450009C832D833E834F835887CE010196BE0136
:10046000675F7F4F0E94D204CE010596BE016F5E8A
:100470007F4F0E94D2049985923088F0898982301A
:10048000C8F0943019F4823051F404C0843029F457
:10049000923081F483E990E0C6C0923049F420E0C4
:1004A0009A858A89981321E02A87CE010996BBC0D4
:1004B000823049F420E09A858A89981321E02A8BBA
:1004C000CE014196B0C02D843E844F8458886D88FB
:1004D0007E888F88988CEE24FF248701AA24BB2471
:1004E000650140E050E060E070E0E0E0F0E0C10174
:1004F00081709070892BE9F0E60CF71C081D191D1E
:100500009A01AB012A0D3B1D4C1D5D1D80E090E062
:10051000A0E0B0E0E614F7040805190520F481E036
:1005200090E0A0E0B0E0BA01A901480F591F6A1F8E
:100530007B1FAA0CBB1CCC1CDD1C97FE08C081E0F5
:1005400090E0A0E0B0E0A82AB92ACA2ADB2A3196B6
:10055000E032F10549F0660C771C881C991C569412
:10056000479437942794C3CFFA85EA892B893C892D
:100570008B859C85280F391F2E5F3F4F17C0CA01FE
:1005800081709070892B61F016950795F794E79428
:1005900080E090E0A0E0B0E8E82AF92A0A2B1B2BC3
:1005A00076956795579547952F5F3F4F77FDE7CF36
:1005B0000CC0440F551F661F771F17FD4160EE0CDE
:1005C000FF1C001F111F21503040403090E05907A0
:1005D00090E0690790E4790760F32B8F3C8FDB0193
:1005E000CA018F779070A070B07080349105A1051A
:1005F000B10561F447FD0AC0E114F10401051105DC
:1006000029F0405C5F4F6F4F7F4F40781A8EFE1786
:1006100011F081E08A8F4D8F5E8F6F8F78A383E01A
:10062000898FCE0149960E94FD03A096E2E10C94C9
:10063000F00BA8E1B0E0EFE1F3E00C94E00B69838C
:100640007A838B839C832D833E834F83588789E0F5
:10065000E82EF12CEC0EFD1ECE010196B7010E9492
:10066000D2048E010F5E1F4FCE010596B8010E9485
:10067000D2048985823040F08989823028F0C70110
:10068000B8010E944A0501C08FEF6896E6E00C941D
:10069000FC0BA8E1B0E0EFE4F3E00C94E00B69831D
:1006A0007A838B839C832D833E834F83588789E095
:1006B000E82EF12CEC0EFD1ECE010196B7010E9432
:1006C000D2048E010F5E1F4FCE010596B8010E9425
:1006D000D2048985823040F08989823028F0C701B0
:1006E000B8010E944A0501C08FEF6896E6E00C94BD
:1006F000FC0BA8E1B0E0EFE7F3E00C94E00B6983BA
:100700007A838B839C832D833E834F83588789E034
:10071000E82EF12CEC0EFD1ECE010196B7010E94D1
:10072000D2048E010F5E1F4FCE010596B8010E94C4
:10073000D2048985823040F08989823028F0C7014F
:10074000B8010E944A0501C081E06896E6E00C9479
:10075000FC0BACE0B0E0EFEAF3E00C94E40B69834F
:100760007A838B839C83CE010196BE016B5F7F4FA2
:100770000E94D2048D81823061F1823050F1843048
:1007800021F48E81882351F12EC02F81388537FDC9
:1007900020C06E812F3131051CF06623F9F023C093
:1007A0008EE190E0821B930B29853A854B855C8511
:1007B00004C056954795379527958A95D2F76623B5
:1007C000B1F050954095309521953F4F4F4F5F4F79
:1007D0000EC020E030E040E050E009C02FEF3FEFD6
:1007E0004FEF5FE704C020E030E040E050E8B9019F
:1007F000CA012C96E2E00C94000CDF92EF92FF927B
:100800000F931F93FC01E480F58006811781D1804E
:100810008081823048F480E090E0A0E1B0E0E82AF6
:10082000F92A0A2B1B2BA5C0843009F49FC0823003
:1008300021F4EE24FF24870105C0E114F104010531
:10084000110519F4E0E0F0E096C0628173819FEF3A
:10085000623879070CF05BC022E83FEF261B370BAC
:100860002A3131052CF020E030E040E050E02AC091
:10087000B801A701022E04C0769567955795479554
:100880000A94D2F781E090E0A0E0B0E004C0880FC5
:10089000991FAA1FBB1F2A95D2F70197A109B10979
:1008A0008E219F21A023B1230097A105B10521F03E
:1008B00081E090E0A0E0B0E09A01AB01282B392B59
:1008C0004A2B5B2BDA01C9018F779070A070B07052
:1008D00080349105A105B10539F427FF09C0205CDA
:1008E0003F4F4F4F5F4F04C0215C3F4F4F4F5F4F13
:1008F000E0E0F0E02030A0E03A07A0E04A07A0E402
:100900005A0710F0E1E0F0E079018A0127C0603871
:10091000710564F5FB01E158FF4FD801C7018F77DE
:100920009070A070B07080349105A105B10539F4C4
:10093000E7FE0DC080E490E0A0E0B0E004C08FE3EB
:1009400090E0A0E0B0E0E80EF91E0A1F1B1F17FFA1
:1009500005C016950795F794E794319687E01695AC
:100960000795F794E7948A95D1F705C0EE24FF2404
:100970008701EFEFF0E06E2F679566276795902F60
:100980009F77D794DD24D7948E2F8695492F462BB9
:10099000582F5D29B701CA011F910F91FF90EF9069
:1009A000DF900895FC01DB01408151812281622F9B
:1009B0006F7770E0221F2227221F9381892F880FD3
:1009C000822B282F30E0991F9927991F11969C930D
:1009D000119721153105A9F54115510561057105DD
:1009E00011F482E037C082E89FEF13969C938E93B8
:1009F00012979A01AB0167E0220F331F441F551F66
:100A00006A95D1F783E08C930DC0220F331F441FEA
:100A1000551F12968D919C911397019713969C9355
:100A20008E931297203080E0380780E0480780E4FA
:100A3000580758F314962D933D934D935C93179755
:100A400008952F3F310579F4411551056105710570
:100A500019F484E08C93089564FF03C081E08C93C3
:100A600012C01C9210C02F57304013963C932E9307
:100A7000129783E08C9387E0440F551F661F771F02
:100A80008A95D1F7706414964D935D936D937C9322
:100A9000179708951F93DC01FB019C91923008F495
:100AA00047C08081823008F443C0943051F41196DD
:100AB0001C91843099F58181682F70E0611B710968
:100AC0003FC0843021F0923031F48230B9F181811D
:100AD000882389F12DC011961C9111978230F1F075
:100AE00081811817D9F412962D913C911397828128
:100AF00093818217930794F028173907BCF0149656
:100B00008D919D910D90BC91A02D248135814681C0
:100B10005781281739074A075B0718F4112341F05A
:100B20000AC082179307A407B50740F4112319F0F0
:100B300061E070E005C06FEF7FEF02C060E070E041
:100B4000CB011F910895DF93CF93CDB7DEB7A9E511
:100B5000B0E0E9E5F0E080818E7F8C93A9E5B0E01C
:100B6000E9E5F0E080818D7F8C93CF91DF9108954E
:100B7000DF93CF93CDB7DEB7E2E5F0E01082A3E5D7
:100B8000B0E0E3E5F0E080818F778C93A3E5B0E0FF
:100B9000E3E5F0E080818F7B8C93A3E5B0E0E3E5B3
:100BA000F0E08081877F8C93A3E5B0E0E3E5F0E09F
:100BB00080818F7E8C93A3E5B0E0E3E5F0E0808157
:100BC0008F7D8C93A3E5B0E0E3E5F0E08081846065
:100BD0008C93A3E5B0E0E3E5F0E080818D7F8C931A
:100BE000A3E5B0E0E3E5F0E080818E7F8C93A9E59A
:100BF000B0E0E9E5F0E0808181608C93A9E5B0E0A8
:100C0000E9E5F0E080818D7F8C93A8E5B0E0E8E530
:100C1000F0E0808181608C93A8E5B0E0E8E5F0E049
:100C200080818D7F8C93CF91DF910895DF93CF9357
:100C3000CDB7DEB7ECE5F0E088EC8083E2E5F0E0EC
:100C40001082A3E5B0E0E3E5F0E080818F778C933C
:100C5000A3E5B0E0E3E5F0E080818F7B8C93A3E532
:100C6000B0E0E3E5F0E0808188608C93A3E5B0E03C
:100C7000E3E5F0E080818F7E8C93A3E5B0E0E3E5CF
:100C8000F0E080818F7D8C93A3E5B0E0E3E5F0E0B8
:100C9000808184608C93A3E5B0E0E3E5F0E080819F
:100CA0008D7F8C93A3E5B0E0E3E5F0E080818E7F5B
:100CB0008C93A9E5B0E0E9E5F0E080818E7F8C932C
:100CC000A9E5B0E0E9E5F0E0808182608C93A8E5D9
:100CD000B0E0E8E5F0E080818E7F8C93A8E5B0E09D
:100CE000E8E5F0E0808182608C93CF91DF910895F8
:100CF000DF93CF9300D0CDB7DEB79A838983ECE53D
:100D0000F0E089819A8124E630E0B9010E94AD0BC0
:100D1000CB01AC01CA019C01220F331FC90196957A
:100D2000982F882797958795821B930B840F951F83
:100D30008083A3E5B0E0E3E5F0E0808180688C93F8
:100D4000A3E5B0E0E3E5F0E0808180648C93A3E567
:100D5000B0E0E3E5F0E0808188608C93A3E5B0E04B
:100D6000E3E5F0E080818F7E8C93A3E5B0E0E3E5DE
:100D7000F0E0808180628C93A3E5B0E0E3E5F0E0F1
:100D800080818B7F8C93A3E5B0E0E3E5F0E0808188
:100D900082608C93A3E5B0E0E3E5F0E080818E7F94
:100DA0008C930E94A3050F900F90CF91DF9108952F
:100DB000DF93CF93CDB7DEB7ABE5B0E0EBE5F0E086
:100DC000808180648C93A5E5B0E0E5E5F0E080816A
:100DD00081608C93A5E5B0E0E5E5F0E0808182607C
:100DE0008C93AFE5B0E0EFE5F0E0808180688C9314
:100DF000CF91DF910895DF93CF93CDB7DEB7AFE505
:100E0000B0E0EFE5F0E0808180688C93CF91DF91D6
:100E10000895DF93CF93CDB7DEB7AFE5B0E0EFE550
:100E2000F0E080818F778C93CF91DF9108951F92AE
:100E30000F920FB60F9211248F939F93DF93CF934E
:100E4000CDB7DEB780919C0091E0892780939C000C
:100E5000CF91DF919F918F910F900FBE0F901F90B8
:100E60001895DF93CF9300D000D00F92CDB7DEB7A7
:100E70008D831C821B821A828D810E94C6098A83FF
:100E80000BC09B818A81981721F489818F5F8983A8
:100E900001C019828A818B8389818B3090F38A818A
:100EA0008C838C810F900F900F900F900F90CF91AB
:100EB000DF910895DF93CF9300D000D0CDB7DEB798
:100EC0008B836C838B818695869586958A838B81AF
:100ED000877089838A81882381F58C818823A9F48E
:100EE000AAE3B0E0EAE3F0E08081482F8981282F6F
:100EF00030E081E090E0022E02C0880F991F0A9432
:100F0000E2F7809584238C93AFC08C81813009F007
:100F1000ABC0AAE3B0E0EAE3F0E08081482F89812A
:100F2000282F30E081E090E0022E02C0880F991F48
:100F30000A94E2F7842B8C9397C08A81813081F5E3
:100F40008C818823A9F4A7E3B0E0E7E3F0E0808197
:100F5000482F8981282F30E081E090E0022E02C0E6
:100F6000880F991F0A94E2F7809584238C937CC0A4
:100F70008C81813009F078C0A7E3B0E0E7E3F0E0CE
:100F80008081482F8981282F30E081E090E0022E77
:100F900002C0880F991F0A94E2F7842B8C9364C0D7
:100FA0008A81823081F58C818823A9F4A4E3B0E0A2
:100FB000E4E3F0E08081482F8981282F30E081E050
:100FC00090E0022E02C0880F991F0A94E2F78095E4
:100FD00084238C9349C08C81813009F045C0A4E3FF
:100FE000B0E0E4E3F0E08081482F8981282F30E0F1
:100FF00081E090E0022E02C0880F991F0A94E2F768
:10100000842B8C9331C08A81833071F58C81882345
:10101000A9F4A1E3B0E0E1E3F0E08081482F898109
:10102000282F30E081E090E0022E02C0880F991F47
:101030000A94E2F7809584238C9316C08C818130CA
:1010400099F4A1E3B0E0E1E3F0E08081482F8981E9
:10105000282F30E081E090E0022E02C0880F991F17
:101060000A94E2F7842B8C930F900F900F900F90BF
:10107000CF91DF910895DF93CF9300D000D0CDB70B
:10108000DEB78B836C838B818695869586958A8364
:101090008B81877089838A81882381F58C8188235D
:1010A000A9F4ABE3B0E0EBE3F0E08081482F898165
:1010B000282F30E081E090E0022E02C0880F991FB7
:1010C0000A94E2F7809584238C93AFC08C818130A1
:1010D00009F0ABC0ABE3B0E0EBE3F0E08081482F78
:1010E0008981282F30E081E090E0022E02C0880F35
:1010F000991F0A94E2F7842B8C9397C08A818130E0
:1011000081F58C818823A9F4A8E3B0E0E8E3F0E05E
:101110008081482F8981282F30E081E090E0022EE5
:1011200002C0880F991F0A94E2F7809584238C935C
:101130007CC08C81813009F078C0A8E3B0E0E8E39E
:10114000F0E08081482F8981282F30E081E090E015
:10115000022E02C0880F991F0A94E2F7842B8C9309
:1011600064C08A81823081F58C818823A9F4A5E34B
:10117000B0E0E5E3F0E08081482F8981282F30E05E
:1011800081E090E0022E02C0880F991F0A94E2F7D6
:10119000809584238C9349C08C81813009F045C0AF
:1011A000A5E3B0E0E5E3F0E08081482F8981282FB6
:1011B00030E081E090E0022E02C0880F991F0A946F
:1011C000E2F7842B8C9331C08A81833071F58C8156
:1011D0008823A9F4A2E3B0E0E2E3F0E08081482FA5
:1011E0008981282F30E081E090E0022E02C0880F34
:1011F000991F0A94E2F7809584238C9316C08C8102
:10120000813099F4A2E3B0E0E2E3F0E08081482F7E
:101210008981282F30E081E090E0022E02C0880F03
:10122000991F0A94E2F7842B8C930F900F900F90E4
:101230000F90CF91DF910895DF93CF9300D0CDB77A
:10124000DEB789836A838981882399F4ABE3B0E0B0
:10125000EBE3F0E08081282F2F708A81882F90E0C7
:1012600082959295907F9827807F9827822B8C93E8
:1012700041C08981813099F4A8E3B0E0E8E3F0E06F
:101280008081282F2F708A81882F90E082959295F7
:10129000907F9827807F9827822B8C932BC0898101
:1012A000823099F4A5E3B0E0E5E3F0E08081282FF7
:1012B0002F708A81882F90E082959295907F982751
:1012C000807F9827822B8C9315C08981833091F47D
:1012D000A2E3B0E0E2E3F0E08081282F2F708A8162
:1012E000882F90E082959295907F9827807F98270D
:1012F000822B8C930F900F90CF91DF910895DF9305
:10130000CF9300D0CDB7DEB789836A8389818823E4
:1013100061F4ABE3B0E0EBE3F0E08081982F907FE5
:101320008A818F70892B8C932CC08981813061F4E4
:10133000A8E3B0E0E8E3F0E08081982F907F8A8115
:101340008F70892B8C931DC08981823061F4A5E355
:10135000B0E0E5E3F0E08081982F907F8A818F7084
:10136000892B8C930EC08981833059F4A2E3B0E0BD
:10137000E2E3F0E08081982F907F8A818F70892B43
:101380008C930F900F90CF91DF910895DF93CF93BF
:1013900000D000D0CDB7DEB78C838C818695869542
:1013A00086958B838C8187708A838B81882391F4C7
:1013B000E9E3F0E08081282F30E08A81882F90E0F7
:1013C000A90102C0559547958A95E2F7CA01817037
:1013D00089833EC08B81813091F4E6E3F0E0808127
:1013E000282F30E08A81882F90E0A90102C055950E
:1013F00047958A95E2F7CA018170898329C08B815C
:10140000823091F4E3E3F0E08081282F30E08A819C
:10141000882F90E0A90102C0559547958A95E2F77B
:10142000CA018170898314C08B81833089F4E0E321
:10143000F0E08081282F30E08A81882F90E0A90198
:1014400002C0559547958A95E2F7CA018170898354
:1014500089810F900F900F900F90CF91DF91089599
:10146000DF93CF93CDB7DEB7A7E2B0E0E7E2F0E0DD
:1014700080818F778C93A7E2B0E0E7E2F0E0808193
:1014800080648C93A7E2B0E0E7E2F0E080818062C4
:101490008C93A7E2B0E0E7E2F0E080818F7E8C934E
:1014A000A7E2B0E0E7E2F0E08081877F8C93A7E2DB
:1014B000B0E0E7E2F0E080818B7F8C93A7E2B0E0C0
:1014C000E7E2F0E080818D7F8C93A7E2B0E0E7E275
:1014D000F0E0808181608C93A6E2B0E0E6E2F0E08B
:1014E000808180688C93A6E2B0E0E6E2F0E0808143
:1014F00084608C93A6E2B0E0E6E2F0E08081826056
:101500008C93A6E2B0E0E6E2F0E0808181608C930B
:10151000CF91DF910895DF93CF93CDB7DEB7A6E2E9
:10152000B0E0E6E2F0E0808180648C93E6E2F0E0F7
:10153000808182958F70882F90E0817090700097E5
:10154000A9F3A6E2B0E0E6E2F0E0808180618C934E
:10155000E5E2F0E08081CF91DF9108950F931F9332
:10156000DF93CF93CDB7DEB72F970FB6F894DEBFDA
:101570000FBECDBFE7E3F0E08FE08083E4E3F0E06F
:101580008FEF80830E94300A0E94D806C8C0E8E32B
:10159000F0E010820E948B0A8F87E5E3F0E08F85F0
:1015A000808305E310E0E5E3F0E08081482F4F7091
:1015B0008F85282F30E0C901880F991F880F991F48
:1015C000820F931F2FEF30E0B9010E94C10BCB01B6
:1015D00082959295907F9827807F9827842BF80199
:1015E000808305E310E0E5E3F0E08081482F407F51
:1015F0008F85282F30E0C901880F991F880F991F08
:10160000820F931F2FEF30E0B9010E94C10B2CE134
:1016100030E0B9010E94C10BCB018F70842BF8011F
:10162000808380E090E8ABE3B5E48B879C87AD874F
:10163000BE876B857C858D859E8520E030E04AE7FE
:1016400054E40E941F02DC01CB018F839887A98795
:10165000BA876F81788589859A8520E030E040E8F7
:101660005FE30E94790388232CF481E090E09E835D
:101670008D833FC06F81788589859A8520E03FEF13
:101680004FE757E40E94190318164CF56B857C85CB
:101690008D859E8520E030E040E251E40E941F02EB
:1016A000DC01CB01BC01CD010E944900DC01CB0172
:1016B0009E838D830FC084E690E09C838B838B8117
:1016C0009C810197F1F79C838B838D819E8101978B
:1016D0009E838D838D819E81009769F714C06F81F1
:1016E000788589859A850E944900DC01CB019E831B
:1016F0008D838D819E819A83898389819A810197C7
:10170000F1F79A83898300D0EDB7FEB7319680E672
:1017100090E0918380830E940B0C0F900F9080913A
:101720009C00882309F433CF13C0E5E3F0E0108276
:10173000E8E3F0E08FE0808300D0EDB7FEB73196AC
:101740008CE790E0918380830E940B0C0F900F90A8
:1017500080919C00813049F3E2CFAA1BBB1B51E171
:1017600007C0AA1FBB1FA617B70710F0A61BB70B11
:10177000881F991F5A95A9F780959095BC01CD01B6
:10178000089597FB092E07260AD077FD04D0E5DFE0
:1017900006D000201AF4709561957F4F0895F6F7F2
:1017A000909581959F4F08952F923F924F925F920F
:1017B0006F927F928F929F92AF92BF92CF92DF9261
:1017C000EF92FF920F931F93CF93DF93CDB7DEB7C6
:1017D000CA1BDB0B0FB6F894DEBF0FBECDBF09945A
:1017E0002A88398848885F846E847D848C849B84B1
:1017F000AA84B984C884DF80EE80FD800C811B81BF
:10180000AA81B981CE0FD11D0FB6F894DEBF0FBEED
:10181000CDBFED010895A0E0B0E0E1E1FCE00C9463
:10182000E40BFE0135966191719180919F0090913A
:10183000A000AF010E94200C2096E2E00C94000C66
:10184000ABE0B0E0E6E2FCE00C94D40B3C012B01F1
:101850005A01FC0117821682838181FD03C06FEF5C
:101860007FEFC6C19AE0892E1E010894211C311C0D
:10187000F3012381F20123FD859123FF81912F0143
:10188000882309F4B2C1853239F423FD859123FF01
:1018900081912F01853229F490E0B3010E94130E4B
:1018A000E7CF982FFF24EE249924FFE1FF15D0F015
:1018B0009B3269F09C3228F4903259F0933291F4C3
:1018C0000EC09D3249F0903369F441E024C052E0EB
:1018D000F52A84E0F82A28C098E0F92A25C0E0E13A
:1018E000FE2A22C0F7FC29C0892F80538A3070F469
:1018F000F6FE05C0989C902C1124980E15C0E89C0B
:10190000E02C1124E80EF0E2FF2A0EC09E3229F4EA
:10191000F6FC6BC140E4F42A07C09C3619F450E889
:10192000F52A02C0983649F4F20123FD959123FF70
:1019300091912F01992309F0B8CF892F85548330D5
:1019400018F08052833038F444E050E0A40EB51E05
:101950005FE359830FC0933631F0933779F09335B5
:1019600009F056C020C0F5018081898342E050E033
:10197000A40EB51E610101E010E012C0F501C080A7
:10198000D180F6FC03C06FEF7FEF02C0692D70E0DD
:1019900042E050E0A40EB51EC6010E94080E8C0164
:1019A0005FE7F52214C0F501C080D180F6FC03C0CA
:1019B0006FEF7FEF02C0692D70E042E050E0A40EAF
:1019C000B51EC6010E94FD0D8C0150E8F52AF3FEFC
:1019D00007C01AC080E290E0B3010E94130EEA949F
:1019E0008E2D90E008171907A8F30EC0F601F7FC3A
:1019F0008591F7FE81916F0190E0B3010E94130E73
:101A0000E110EA94015010400115110579F7EAC080
:101A1000943611F0993669F5F7FE08C0F50120817A
:101A200031814281538184E090E00AC0F5018081D8
:101A300091819C01442737FD4095542F82E090E02E
:101A4000A80EB91E9FE6F92257FF09C05095409590
:101A5000309521953F4F4F4F5F4FE0E8FE2ACA0176
:101A6000B901A1012AE030E00E943F0ED82ED21821
:101A700040C0953729F41F2D1F7E2AE030E01DC09D
:101A80001F2D197F9F3661F0903720F4983509F0AB
:101A9000ACC00FC0903739F0983709F0A6C004C029
:101AA00028E030E00AC0106114FD146020E130E04D
:101AB00004C014FD166020E132E017FF08C0F501F4
:101AC000608171818281938144E050E008C0F5011A
:101AD00080819181BC0180E090E042E050E0A40E62
:101AE000B51EA1010E943F0ED82ED2188FE7F82E06
:101AF000F122F6FE0BC05EEFF522D91438F4F4FEA5
:101B000007C0F2FC05C08FEEF82202C01D2D01C0F7
:101B1000192DF4FE0DC0FE01ED0DF11D8081803305
:101B200019F499EEF92208C01F5FF2FE05C003C048
:101B30008F2D867809F01F5F0F2DF3FC14C0F0FE87
:101B40000FC01E1510F09D2C0BC09D2C9E0C911AE1
:101B50001E2D06C080E290E0B3010E94130E1F5FAD
:101B60001E15C0F304C01E1510F4E11A01C0EE24C6
:101B700004FF0FC080E390E0B3010E94130E02FF48
:101B80001DC001FD03C088E790E00EC088E590E02D
:101B90000BC0802F867891F001FF02C08BE201C05C
:101BA00080E2F7FC8DE290E0B3010E94130E06C0C4
:101BB00080E390E0B3010E94130E9A94D914C0F30D
:101BC000DA94F101ED0DF11D808190E0B3010E94E6
:101BD000130EDD20A9F706C080E290E0B3010E9459
:101BE000130EEA94EE20C1F743CEF30166817781AC
:101BF000CB012B96E2E10C94F00BFC0105906150B7
:101C000070400110D8F7809590958E0F9F1F089512
:101C1000FC016150704001900110D8F780959095BB
:101C20008E0F9F1F08950F931F93CF93DF938C0107
:101C3000EB018B8181FF1BC082FF0DC02E813F8194
:101C40008C819D812817390764F4E881F98101931B
:101C5000F983E88306C0E885F985802F0995892BEB
:101C600031F48E819F8101969F838E8302C00FEF96
:101C70001FEFC801DF91CF911F910F910895FA01D5
:101C8000AA27283051F1203181F1E8946F936E7FBB
:101C90006E5F7F4F8F4F9F4FAF4FB1E03ED0B4E0AC
:101CA0003CD0670F781F891F9A1FA11D680F791FED
:101CB0008A1F911DA11D6A0F711D811D911DA11DFE
:101CC00020D009F468943F912AE0269F112430190E
:101CD000305D3193DEF6CF010895462F4770405DA9
:101CE0004193B3E00FD0C9F7F6CF462F4F70405D58
:101CF0004A3318F0495D31FD4052419302D0A9F7B3
:101D0000EACFB4E0A6959795879577956795BA95AC
:101D1000C9F700976105710508959B01AC010A2E72
:101D200006945795479537952795BA95C9F7620F49
:0E1D3000731F841F951FA01D0895F894FFCF08
:101D3E004E6F7420507265737365642C2054686501
:101D4E00204C4544206973204F46460050726573FF
:101D5E007365642C20546865204C454420697320BB
:0C1D6E004F4E00000000000000000000CC
:00000001FF
